:020000042000DA
:1000000000040120E1090020E10A0020E10A0020AB
:10001000E10A0020E10A0020E10A0020E10A0020B4
:10002000E10A0020E10A0020E10A0020110B002073
:10003000E10A0020E10A0020E10A0020F10A002084
:10004000E10A0020E10A0020E10A0020E10A002084
:10005000E10A0020E10A002031070020910600207B
:10006000E10A002001070020E10A0020D120002041
:10007000112100205121002091210020D1210020B8
:10008000112200205122002031270020E10A002007
:10009000E10A0020E10A0020E10A00208105002099
:1000A000312B0020E10A0020E10A0020E10A0020B3
:1000B000812D0020A12D0020C12D0020E10A00206B
:1000C000E10A0020E10A0020E10A0020E10A002004
:1000D000E10A0020E10A002001300020E10A0020AE
:1000E000E1050020E10A0020E10A0020E10A0020E9
:1000F000E10A0020E10A0020E10A0020912200200C
:10010000E10A0020E10A0020112B0020E10A002072
:10011000E10A0020E10A0020E10A0020E10A0020B3
:10012000D122002011230020512300209123002000
:10013000D1230020E10A0020E10A0020E10A00208A
:10014000E10A0020E10A0020E10A0020E10A002083
:10015000112400205124002091240020E10A0020D5
:10016000E10A0020E10A0020E10A0020E10A002063
:10017000E10A0020E10A0020E10A0020E10A002053
:08018000E10A0020E10A002061
:1001900000B585B001900023039306E006480A21CC
:1001A00001F036FE039B0A330393039A019B9A42A4
:1001B000F4D305B05DF804FBF80D0120AFF3008027
:1001C00008B501F0A5FD00F0DBFD0448044901F08D
:1001D000F7FD0448044901F0F3FD08BDF80D0120C6
:1001E00080300020080E012090300020AFF3008006
:1001F00084B0039002910192039B1A68029B5B00FA
:100200000133012101FA03F3DB431A40029B5B0037
:10021000012101FA03F31A43039B1A60039B5A68F6
:100220000121029B01FA03F3DB431A40039B5A604E
:10023000019B192B17D0322B28D0022B39D1039BCD
:100240009A68029B5B00012101FA03F3DB431A4029
:10025000029B5B000133012101FA03F3DB431A40E7
:10026000039B9A6036E0039B9A68029B5B00013314
:10027000012101FA03F3DB431A40029B5B000121D9
:1002800001FA03F31A43039B9A6023E0039B9A68E5
:10029000029B5B000133012101FA03F31A43029B25
:1002A0005B00012101FA03F3DB431A40039B9A60D0
:1002B00010E0039B9A68029B5B00012101FA03F3A3
:1002C0001A43029B5B000133012101FA03F31A4335
:1002D000039B9A60039BDA68029B5B00012101FA91
:1002E00003F3DB431A40029B5B000133012101FA57
:1002F00003F3DB431A40039BDA600122029B02FAFC
:1003000003F39AB2039B5A8304B07047AFF30080A3
:1003100082B001900091019B1A68009B5B00013341
:10032000012101FA03F3DB431A40009B5B0001212A
:1003300001FA03F3DB431A40019B1A60019BDA6860
:10034000009B5B00012101FA03F3DB431A40009B91
:100350005B000133012101FA03F3DB431A40019BE7
:10036000DA6002B0704700BFAFF30080AFF30080E7
:1003700008B5184B1B68002B24D0174B164A52693E
:1003800082F080025A61144B5B69DB0903F00103C0
:10039000002B0FD1202383F31188104B9B68002B77
:1003A00002DC0E4801F044F900F02AFF002383F339
:1003B000118802E0094801F0EBF84FF47A70FFF77A
:1003C000E7FED6E7044B044A526942F080025A61C4
:1003D000CFE700BFC409012000040240B809012092
:1003E00000B583B000F08CFA0023009329484FF445
:1003F000D8714022284B01F00BF828480F21002229
:10040000FFF7F6FE264807210022FFF7F1FE2348FA
:100410000D21FFF77DFF22480521FFF779FF214BD2
:10042000204A526C42F480425A641F4B1E4A526961
:1004300022F0F00242F020025A611C4B1B4A126863
:1004400042F400521A60194B184A926842F4005262
:100450009A60164B154AD26842F40052DA60134B88
:100460004FF400525A612820602100F011FC0C4B1F
:100470000B4A526942F080025A61084B074A52699E
:1004800042F400425A610A48012101F069F803B0C0
:100490005DF804FB080801207103002000080240F9
:1004A000000402400038024000380140003C014096
:1004B000B8090120AFF30080AFF30080AFF30080F4
:1004C00000B58DB000238DF82F30284800F0F8F9E2
:1004D000274B284A1A6000230A930023099335E02A
:1004E000234B1B681B78DBB25AB20A9B02FA03F358
:1004F000DAB29DF82F301343DBB28DF82F300A9B10
:100500005A1C1D4B1340002B03DA013B63F0070319
:1005100001330A939DF82F30184600F0A9F92020E6
:1005200000F0A6F90A9B002B0BD101AA099B1344EA
:100530009DF82F201A7000238DF82F30099B01336E
:1005400009930B4B1B685A1C094B1A609DF82F30FE
:10055000FF2BC5D101AA099B134400221A7001ABDD
:10056000184600F0ADF90DB05DF804FB60300020D6
:1005700000080120C809012007000080AFF30080B7
:1005800000B583B0124B124A126822F020021A60A2
:100590000F4B20225A610F4B1B695B0B01930E4BD3
:1005A0001B68019AD2B21A700B4B1B685A1C0A4B7B
:1005B0001A60074B064A126842F020021A60044B88
:1005C00020225A6100F0E4FA03B05DF804FB00BF9A
:1005D000003C01400008024000080120AFF3008009
:1005E00008B5234B224A126822F400521A60204BAD
:1005F0004FF400525A611F4B1B695B0903F0010362
:10060000002B27D01C4B1B695B0B03F00103002B55
:100610001ED11A4B194AD26822F0F00242F01002A1
:10062000DA60134B124A126842F020021A60104B33
:100630000F4A926842F020029A600D4B20225A61C4
:100640001720602100F024FB0D4B0E4A1A6001E0D8
:10065000FFF736FF064B064A126842F400521A6052
:10066000034B4FF400525A6100F092FA08BD00BFEC
:10067000003C0140000402400008024000380140F4
:1006800000080120C8090120AFF30080AFF300800B
:1006900008B5164B154A126822F002021A60134B75
:1006A00002225A61124B1B6903F00203002B10D186
:1006B0000F4B1B6903F00803002B05D00D4B1B6883
:1006C0005A1C0C4B1A6004E00A4B1B685A1E094B5B
:1006D0001A60064B054A126842F008021A60034B82
:1006E00008225A6100F054FA08BD00BF003C0140E6
:1006F00000000240C80A0120AFF30080AFF3008081
:1007000008B50A4B094A126822F008021A60074B22
:1007100008225A61054B054A126842F002021A602B
:10072000024B02225A6100F033FA08BD003C01403E
:1007300008B5074B01225A61064B064A526982F4FA
:1007400080525A61044B01221A6000F021FA08BD60
:10075000003C0140000C0240CC0A0120AFF30080B5
:1007600000B583B00923019306E00648019900F023
:100770000FF8019B01330193019B0F2BF5D903B0B7
:100780005DF804FB00100240AFF30080AFF300807F
:1007900082B001900091019B1A68009B5B000121CF
:1007A00001FA03F31A43019B1A60019B1A68009B2C
:1007B0005B000133012101FA03F3DB431A40019B83
:1007C0001A60019B1A680121009B01FA03F3DB43C5
:1007D0001A40019B1A60184602B07047AFF30080C0
:1007E00000B585B0019000914FF48053029300232F
:1007F000039318E0019B03F00103002B04D01B4B73
:10080000029A92B21A8303E0184B029A92B25A8368
:10081000019BDA0F13445B100193029B5B00029370
:10082000039B01330393039B032BE3D9009B002B12
:1008300004D00E4B4FF400621A8303E00B4B4FF4CD
:1008400000625A830A20FFF7A3FC084B4FF4806232
:100850001A830A20FFF79CFC044B4FF480625A83F2
:100860000A20FFF795FC05B05DF804FB001002407C
:1008700000B585B003468DF807309DF807301B0999
:100880008DF80F309DF8073003F00F038DF80E3010
:100890009DF80F3018460121FFF7A2FF9DF80E309A
:1008A00018460121FFF79CFF2820FFF771FC05B0D7
:1008B0005DF804FBAFF30080AFF30080AFF300807E
:1008C00000B585B00190019B1B788DF80F300BE0CF
:1008D0009DF80F301846FFF7CBFF019B01330193C2
:1008E000019B1B788DF80F309DF80F30002BEFD156
:1008F00005B05DF804FB00BFAFF30080AFF30080EC
:1009000008B5FFF72DFF322000F0A2FD03200021E3
:10091000FFF766FF0A2000F09BFD03200021FFF790
:100920005FFF4FF4FA70FFF733FC03200021FFF75D
:1009300057FF02200021FFF753FF08200021FFF797
:100940004FFF02200021FFF74BFF3220FFF720FC72
:1009500000200021FFF744FF0E200021FFF740FF99
:100960003220FFF715FC00200021FFF739FF01209E
:100970000021FFF735FF052000F06AFD002000216F
:10098000FFF72EFF06200021FFF72AFF3220FFF796
:10099000FFFB08200021FFF723FF00200021FFF7C5
:1009A0001FFF3220FFF7F4FB08BD00BFAFF300804C
:1009B00008B5FFF705FCFFF713FDFEE7AFF3008076
:1009C000704700BFAFF30080AFF30080AFF300804B
:1009D000FEE700BFAFF30080AFF30080AFF300800D
:1009E00072B62E4C84F3098872B62D4C84F30888B5
:1009F0002C4B4FF040421A602B4B2B4A126842F4AA
:100A000070021A600024E1EE104A284B1C60062494
:100A100084F31488BFF36F8F254C214D04E02346E7
:100A20001C1D4FF055321A60AC42F8D3214C1B4DBF
:100A300004E023461C1D4FF055321A60AC42F8D337
:100A400002F0FEFA1C4D1D4C05E023461C1D2A46F3
:100A5000151D12681A601A4B9C42F6D3194C1A4D98
:100A600003E023461C1D00221A60AC42F9D3FFF7B5
:100A7000A7FF164C02E0236898470434144B9C42AD
:100A8000F9D3FFF795FF134C02E02368984704342D
:100A9000114B9C42F9D3FFF79BFF00BF00080120D8
:100AA0000004012034EF00E088ED00E03CEF00E0BE
:100AB0000000012000040120A032002000080120D5
:100AC0000408012008080120CC0E01208801002024
:100AD000880100208801002088010020AFF30080F9
:100AE000FEE700BFAFF30080AFF30080AFF30080FC
:100AF00008B5202383F3118800F07AF9002383F3EB
:100B0000118800F045F808BDAFF30080AFF3008016
:100B100082B0EFF309830193019B68330193084B83
:100B2000019A526E5A60064B054A926868329A6082
:100B3000019B83F30988002383F3118802B0704777
:100B400030EF00E0AFF30080AFF30080AFF3008040
:100B500008B50A4B4FF000529A60084B084ADA6019
:100B60000720102100F0D4F80A20202100F0D0F84E
:100B70000B20802100F0CCF808BD00BF00ED00E0A4
:100B80000003FA05AFF30080AFF30080AFF30080FD
:100B900082B0202383F31188254B5B6803F4006344
:100BA000002B40D0EFF309830193019B683B019335
:100BB000019B83F30988019B4FF08072DA611D4B22
:100BC0009B69DB7F002B0BD01A4B1B689A68194B73
:100BD0009B699B689A4294BF00230123DBB20AE021
:100BE000144B1B689A68134B9B699B689A4234BFED
:100BF00000230123DBB2002B05D0019B0E4A9A6132
:100C0000F1EE10FA02E0019B0C4A9A61019B6833F5
:100C10000B4A52680092009A5A66094B009A42F0B9
:100C200001025A6002E0002383F3118802B070478A
:100C300000ED00E0640C0120510C0020540C002059
:100C400030EF00E0AFF30080AFF30080AFF300803F
:100C500000F03EFB00DF00BFAFF30080AFF3008089
:100C600003460A462DE9F04F2DED108AC2F80CD04C
:100C7000D3F80CD0BDEC108ABDE8F08FAFF3008044
:100C8000002383F311882846A04700F0F1FB70474A
:100C900010B485B001900091019B03F00303DB00C9
:100CA0000393194B019A9208174901988008C030A4
:100CB00051F820000399FF2404FA01F1C9430840C8
:100CC0000399009C04FA01F10143C03243F8221059
:100CD0000D4B019A5209019901F01F01012000FA00
:100CE00001F1603243F82210074B019A5209019931
:100CF00001F01F01012000FA01F143F8221005B0B4
:100D00005DF8044B704700BF00E100E0AFF30080E6
:100D100010B485B001900091019B03F00303DB0048
:100D200003930D4B019A92080B49019880080630F5
:100D300051F820000399FF2404FA01F1C943084047
:100D40000399009C04FA01F10143063243F8221092
:100D500005B05DF8044B704700ED00E0AFF3008094
:100D600082B00190024B9B69024A9A61FEE700BF84
:100D7000640C012070300020AFF30080AFF30080DE
:100D800000B583B0FFF7E4FE00F02AF900F078F830
:100D900000F04EFF00F0A4FF0F48402100F0B8FA29
:100DA00002460E4B9A610D4B9B6901221A77002374
:100DB00083F3118862B6094B9B69094A9A61002343
:100DC000009308484FF4A0710122074B00F020FB6C
:100DD00003B05DF804FB00BF100C0120640C01207F
:100DE000A0300020D00A0120610D0020AFF3008068
:100DF00000B583B01E4B9B69DB7F002B05D01C4BDD
:100E00009B69DA7F013AD2B2DA771A4BDB685A1C57
:100E1000184BDA60174B1A68164B9A4225D0154BBF
:100E20001B689A68013A9A6018E0019BDB6800939E
:100E3000019B0022DA60019B1B680E4A5A60019BED
:100E40001A680C4B1A60002383F31188019B1A69FE
:100E5000009B10469847202383F31188054B1B689D
:100E60000193019B9B68002BDFD003B05DF804FB6E
:100E7000640C0120540C0120AFF30080AFF300801C
:100E8000074B074A5A60064B5A68054B1A60044BD9
:100E90004FF0FF329A60024B0022DA60704700BFC9
:100EA000540C0120AFF30080AFF30080AFF300805B
:100EB00086B00390029101920093039B002B06D011
:100EC000019B002B03D0029B002B00D000BF039B93
:100ED000009A1A61039B019ADA60184B1B6805930C
:100EE00007E0059B9B68029AD31A0293059B1B6837
:100EF0000593059B9A68029B9A42F2D3039B059A3D
:100F00001A60039B1B685A68039B5A60039B5B68CB
:100F1000059A03995160059A52681A60039B029AD8
:100F20009A60059A054B9A4205D0059B9A68029BE8
:100F3000D21A059B9A6006B0704700BF540C01207E
:100F400082B00190019B1A680D4B9A4208D0019B18
:100F50001B68019A12689168019A92680A449A6023
:100F6000019B5B68019A12681A60019B1B68019AD9
:100F700052685A60019B0022DA6002B0704700BFDD
:100F8000540C0120AFF30080AFF30080AFF300807A
:100F900084B00190019B1B680393039B1A68019B1B
:100FA0001A60019B1B68019A5A60039B184604B0A3
:100FB000704700BFAFF30080AFF30080AFF3008055
:100FC00082B00190019B5B68019A12681A60019BD4
:100FD0001B68019A52685A60019B184602B070471C
:100FE000084B084A5A60074B5A68064B1A60054B73
:100FF00000229A60034B034A5A61024B5A69014B23
:101000001A617047640C0120AFF30080AFF30080D9
:1010100084B00190019B1B7F002B04D0019B1B7FA0
:101020000E2B00D000BF019B00221A770E4B0393BA
:10103000039B1B680393039B9A68019B9B689A42DE
:10104000F6D2019B039A1A60039B5A68019B5A606F
:10105000019B5B68039A01995160039A52681A6078
:10106000019B184604B07047640C0120AFF3008068
:1010700000B585B003468DF807300E4B9B6903938E
:10108000039B9DF807201A77039B1422DA770948FF
:10109000FFF77EFF0246074B9A61064B9B690122D0
:1010A0001A77044B9B6918460399FFF7D9FD05B0E1
:1010B0005DF804FB640C0120AFF30080AFF3008007
:1010C00000B585B00190019B0393202383F3118821
:1010D000039B1B7F0D2B2BD801A252F823F000BFDE
:1010E00019110020311100203111002021110020A0
:1010F000311100202B11002031110020311100206E
:101100003111002031110020311100203111002057
:10111000311100202B110020002383F3118811E0EE
:10112000039B1B6A9A6801329A600398FFF748FF95
:10113000039B4FF0FF321A620398FFF769FF002309
:1011400083F3118805B05DF804FB00BFAFF30080A6
:1011500000B589B0034600918DF80730009BB3F1CC
:10116000FF3F15D0104B9B6903AA104600990F4A08
:10117000FFF79EFE9DF807301846FFF779FF069BA4
:10118000002B04D003AB1846FFF7DAFE05E004E0BD
:101190009DF807301846FFF76BFF034B9B691B6AEE
:1011A000184609B05DF804FB640C0120C110002052
:1011B00000B585B001900091019B009A1A62019BD5
:1011C0009A680E4B9B699B689A4203D80198FFF777
:1011D0001FFF0FE0094B9B691846FFF719FF0390AB
:1011E000064B019A9A61019B01221A770198039993
:1011F000FFF736FD05B05DF804FB00BF640C01206D
:1012000008B5054B1B689A68034B9B699B689A421B
:1012100001D900F025F808BD640C0120AFF300806F
:1012200000B583B00D4B9B6901930C48FFF7B0FEEE
:1012300002460A4B9A61094B9B6901221A77019B6E
:101240001422DA770198FFF7E3FE044B9B691846F6
:101250000199FFF705FD03B05DF804FB640C012064
:1012600000B583B0194B9B6900931848FFF790FEB7
:101270000246164B9A61154B9B6901221A77009B17
:1012800000221A77114B0193019B1B680193019B6C
:101290009A68009B9B689A42F6D8009B019A1A6054
:1012A000019B5A68009B5A60009B5B68019A0099F9
:1012B0005160019A52681A60044B9B691846009964
:1012C000FFF7CEFC03B05DF804FB00BF640C012007
:1012D00008B5054B9B69DB7F002B02D1FFF7A0FF10
:1012E00001E0FFF7BDFF08BD640C0120AFF30080F3
:1012F00084B00190019B1B680393039B1A68019BB8
:101300001A60039B184604B0704700BFAFF300801B
:1013100082B001900091019B009A9A60019B022289
:101320001A77019B00225A77019B1422DA77019BDE
:10133000009ADA63019B00229A63019B00225A63A0
:10134000019B01229A77019B00229A61019B104A1E
:101350001A610F4B5A69019B5A61019B5B690C4AE8
:10136000019951610A4A52691A61019B03F12402F1
:10137000019B5A62019B03F12802019BDA62019BE7
:10138000DA6A019B9A62019B184602B0704700BF5F
:10139000640C0120AFF30080AFF30080AFF3008056
:1013A00000B587B00390029101920093039B0593CF
:1013B000039B002B0AD0029BB3F5987F06D3019BB9
:1013C0007F2B03D8009B002B00D000BF029B643B07
:1013D000039A1A44059BDA60059BDB68009A1A643D
:1013E000059BDB68089A5A64059BDB68054A1A6608
:1013F00005980199FFF78CFF0346184607B05DF882
:1014000004FB00BF810C0020AFF30080AFF300802D
:1014100000B589B00590049103920293202383F3D1
:1014200011880A9B009305980499039A029BFFF781
:10143000B7FF079007980021FFF7BAFE002383F358
:101440001188079B184609B05DF804FBAFF30080D4
:1014500000B583B00190202383F311880620019901
:10146000FFF776FE002383F3118803B05DF804FBD9
:1014700000B583B00190202383F31188019800F018
:1014800007F803B05DF804FBAFF30080AFF3008012
:1014900000B585B00190164B9B690393039B019A9D
:1014A0001A6208E0039B24331846FFF721FF034626
:1014B0001846FFF7ADFD039B5A6A039B24339A42FB
:1014C000F0D1039B5B7F03F00303002B09D1039B47
:1014D0005B69039A12691A61039B1B69039A52693B
:1014E0005A610E20FFF7C4FD05B05DF804FB00BF94
:1014F000640C0120AFF30080AFF30080AFF30080F5
:1015000082B001900091019B009A1A60009B5A687A
:10151000019B5A60019B5B68009A01995160009A97
:1015200052681A6002B07047AFF30080AFF30080DA
:1015300084B00190019B1B680393039B1A68019B75
:101540001A60019B1B68019A5A60039B184604B0FD
:10155000704700BFAFF30080AFF30080AFF30080AF
:1015600082B001900091019B002B03D0009B002BC7
:1015700000DB00BF019A019B5A60019B5A68019BE6
:101580001A60019B009A9A6002B07047AFF3008026
:1015900000B585B00190202383F31188019800F0F5
:1015A0000FF80390002383F31188039B184605B0BE
:1015B0005DF804FBAFF30080AFF30080AFF3008071
:1015C00000B583B00190019B9B68002B04DB019B5D
:1015D0001A68019B9A4208D0019B9B68002B05DA90
:1015E000019B1A68019B9A4200D000BF019B9B6837
:1015F0005A1E019B9A60019B9B68002B11DA0B4BD2
:101600009B69019A1A62094B9A69019B1046194617
:10161000FFF776FF0320FFF72BFD044B9B691B6A46
:1016200000E00023184603B05DF804FB640C0120C1
:1016300000B585B00190019B9B68002B04DB019BEA
:101640001A68019B9A4208D0019B9B68002B05DA1F
:10165000019B1A68019B9A4200D000BF019B9B68C6
:101660005A1C019B9A60019B9B68002B0ADC019B22
:101670001846FFF75DFF0390039B00221A62039850
:10168000FFF7C6FC05B05DF804FB00BFAFF30080B8
:1016900082B00190019A019B5A60019B5A68019B9C
:1016A0001A60019B00229A6002B07047AFF300807D
:1016B00000B585B001900091019B1B68039310E079
:1016C000039BDA68009B1A43039BDA60039B5A680A
:1016D000039B9B681046194600F00AF8039B1B68A1
:1016E0000393039A019B9A42EAD105B05DF804FB8B
:1016F00000B583B001900091019B5A6B009B1A4387
:10170000019B5A63019B1B7F082B06D1019B5A6BDF
:10171000019B1B6A1340002B0CD1019B1B7F092BE3
:101720000ED1019B5A6B019B1B6A1A40019B1B6ADD
:101730009A4205D10198FFF76BFC034600221A621A
:1017400003B05DF804FB00BFAFF30080AFF300808F
:1017500082B001900091019B009A1A60009B5A6828
:10176000019B5A60019B5B68009A01995160009A45
:1017700052681A6002B07047AFF30080AFF3008088
:1017800084B00190019B1B680393039B1A68019B23
:101790001A60019B1B68019A5A60039B184604B0AB
:1017A000704700BFAFF30080AFF30080AFF300805D
:1017B00000B583B001900091009B002B02D14FF047
:1017C000FF330FE0094B9B69019A1A62074B9A6934
:1017D000019B10461946FFF7BBFF0D200099FFF74C
:1017E000B7FC0346184603B05DF804FB640C012007
:1017F00084B00390029101920093039A039B5A6074
:10180000039B5A68039B1A60039B00229A60039B08
:10181000029A5A61039B5A69039B9A61039B9A69D6
:10182000039BDA60029A019B1A44039B1A61039B93
:10183000009ADA61039B049A1A6204B0704700BFF1
:1018400000B583B001900B468DF80330019B5A69B7
:10185000019B9B699A4205D1019B9B68002B01D09B
:10186000012300E0002303F00103DBB2002B02D0D0
:101870006FF0030327E0019B9B685A1C019B9A6051
:10188000019B5B69591C019A51619DF803201A70F4
:10189000019B5A69019B1B699A4203D3019BDA6839
:1018A000019B5A61019B1A68019B9A420AD0019BD5
:1018B0001846FFF765FF03461846FFF7A9FB0346E6
:1018C00000221A620023184603B05DF804FB00BF33
:1018D00000B585B001900091202383F31188019B0E
:1018E000DB69002B04D0019BDB69019898470DE070
:1018F0000CE001980099FFF75BFF0390039B002B1E
:1019000004DA002383F31188039B1FE0019B9B688B
:10191000002BEED0019B9B685A1E019B9A60019B95
:101920009B69591C019A91611B788DF80B30019BC2
:101930009A69019B1B699A4203D3019BDA68019B58
:101940009A61002383F311889DF80B30184605B087
:101950005DF804FBAFF30080AFF30080AFF30080CD
:1019600000B587B00390029101920093039BDB695D
:10197000049300230593202383F31188049B002BF9
:1019800003D0049B039898470CE00BE00398009960
:10199000FFF70EFF0346002B04D0002383F31188CA
:1019A000059B2EE0039B9B68002BEFD0039B9B685D
:1019B0005A1E039B9A60029B5A1C0292039A9269D8
:1019C000501C0399886112781A70039B9A69039BD3
:1019D0001B699A4203D3039BDA68039B9A61002335
:1019E00083F31188059B01330593019B013B019310
:1019F000019B002B01D1059B03E0202383F3118879
:101A0000BCE7184607B05DF804FB00BFAFF30080E9
:101A100084B00390029101920093039A039B5A6051
:101A2000039B5A68039B1A60039B019A9A60039B6D
:101A3000029A5A61039B5A69039B9A61039B9A69B4
:101A4000039BDA60029A019B1A44039B1A61039B71
:101A5000009ADA61039B049A1A6204B0704700BFCF
:101A600000B587B003900B4601928DF80B30202310
:101A700083F311880CE003980199FFF799FE059014
:101A8000059B002B04DA002383F31188059B26E0D5
:101A9000039B9B68002BEED0039B9B685A1E039B05
:101AA0009A60039B5B69591C039A51619DF80B2056
:101AB0001A70039B5A69039B1B699A4203D3039BC9
:101AC000DA68039B5A61039BDB69002B03D0039BFD
:101AD000DB6903989847002383F311880023184695
:101AE00007B05DF804FB00BFAFF30080AFF30080E8
:101AF00000B585B00190019B5A69019B9B699A4290
:101B000005D1019B9B68002B01D0012300E000233D
:101B100003F00103DBB2002B02D06FF0020328E0D8
:101B2000019B9B685A1C019B9A60019B9B69591CF5
:101B3000019A91611B788DF80F30019B9A69019B86
:101B40001B699A4203D3019BDA68019B9A61019B4E
:101B50001A68019B9A420AD0019B1846FFF710FEB3
:101B600003461846FFF754FA034600221A629DF80E
:101B70000F30184605B05DF804FB00BFAFF30080DE
:101B800000B587B00390029101920093039BDB693B
:101B9000049300230593202383F311880BE003981B
:101BA0000099FFF705FE0346002B04D0002383F3C2
:101BB0001188059B35E0039B9B68002BEFD0039BAE
:101BC0009B685A1E039B9A60039B5B69591C039A8E
:101BD0005161029A511C029112781A70039B5A6942
:101BE000039B1B699A4203D3039BDA68039B5A61E8
:101BF000049B002B02D0049B03989847002383F397
:101C00001188059B01330593019B013B0193019BC7
:101C1000002B01D1059B04E0202383F3118800BF32
:101C2000C9E7184607B05DF804FB00BFAFF30080BA
:101C3000064B073323F007031A46054B1A60054B82
:101C400023F007031A46044B1A607047CC0E01209C
:101C5000800C012000C00120840C0120AFF3008023
:101C600000B585B00190202383F31188019800F01E
:101C70000FF80390002383F31188039B184605B0E7
:101C80005DF804FBAFF30080AFF30080AFF300809A
:101C900084B00190019B073323F0070301930C4BA1
:101CA0001B681A460B4B1B68D31A1A46019B9A42B3
:101CB00001D2002309E0074B1B680393054B1A6808
:101CC000019B1A44034B1A60039B184604B07047EB
:101CD000840C0120800C0120AFF30080AFF3008062
:101CE00008B5064B064A1A60044B00229A60034B63
:101CF0000022DA600348FFF7CBFC08BD880C012006
:101D0000611C0020980C0120AFF30080AFF300802D
:101D100008B500F035FC084800F032FE00F010F87D
:101D200000F036F800F08CF800F052F900F0B0F94D
:101D300001F08EF908BD00BFA0310020AFF3008094
:101D400008B500F095FD08BDAFF30080AFF300804B
:101D500000B583B00190019B01221A70019B002203
:101D60005A60019B00229A60019B0022DA60019B6D
:101D700000221A61019B00225A61019B1833184608
:101D8000FFF786FC03B05DF804FB00BFAFF30080F3
:101D900008B500F0DDFE08BDAFF30080AFF30080B2
:101DA00082B00190019B01221A70019B00225A60AF
:101DB00002B07047AFF30080AFF30080AFF3008054
:101DC00000B583B001900091019B002B03D0009BD4
:101DD000002B00D000BF202383F31188019B1B78C8
:101DE000012B03D0019B1B78022B00D100BF019B6C
:101DF000009A5A60019800F0C3FE019B02221A70FB
:101E0000002383F3118803B05DF804FBAFF3008077
:101E100000B583B001900091019B04221A700198D3
:101E2000009900F035FF019B02221A7003B05DF8A3
:101E300004FB00BFAFF30080AFF30080AFF300807E
:101E400008B500F0CDFF08BDAFF30080AFF3008010
:101E500082B00190019B01221A70019B00225A60FE
:101E600002B07047AFF30080AFF30080AFF30080A3
:101E700000B585B0039002910192039B3033184660
:101E80000299019A4FF0FF33FFF77AFE0346184696
:101E900005B05DF804FB00BFAFF30080AFF3008036
:101EA00000B585B0039002910192039B0C33184654
:101EB0000299019A4FF0FF33FFF752FD034618468F
:101EC00005B05DF804FB00BFAFF30080AFF3008006
:101ED00000B583B001900B468DF80330019B03F1F0
:101EE00030029DF80330104619464FF0FF32FFF7DD
:101EF000B7FD0346184603B05DF804FBAFF300805E
:101F000000B583B00190019B0C3318464FF0FF31B0
:101F1000FFF7DEFC0346184603B05DF804FB00BF84
:101F200000B585B003900B4601928DF80B30039BF2
:101F300003F130029DF80B3010461946019AFFF765
:101F40008FFD0346184605B05DF804FBAFF3008033
:101F500000B583B001900091019B0C3318460099A5
:101F6000FFF7B6FC0346184603B05DF804FB00BF5C
:101F700000B585B00390029101920093039B30332A
:101F800018460299019A009BFFF7FAFD034618468E
:101F900005B05DF804FB00BFAFF30080AFF3008035
:101FA00000B585B00390029101920093039B0C331E
:101FB00018460299019A009BFFF7D2FC0346184687
:101FC00005B05DF804FB00BFAFF30080AFF3008005
:101FD00008B501F025F808BDAFF30080AFF300802D
:101FE00000B587B0059004910392059B124A1A60D0
:101FF000059B1A1D059B5A60059B01221A72059BC1
:1020000003F10C02059B54330599009110461946C3
:102010001022049BFFF7ECFB059B03F13002059BAC
:10202000643305990091104619461022039BFFF76F
:10203000EFFC07B05DF804FBC0300020AFF3008078
:1020400000B583B001900B468DF80330019B5B69AE
:10205000002B05D1019B043318460421FFF728FB10
:10206000019B03F10C029DF8033010461946FFF75F
:10207000E7FB0346002B05DA019B04331846802159
:10208000FFF716FB03B05DF804FB00BFAFF3008061
:1020900008B500F0D5FC08BDAFF30080AFF30080B9
:1020A00000B583B00190019B01221A70019B0022B0
:1020B0005A60019B00229A60019B0C331846FFF77F
:1020C000E7FA03B05DF804FBAFF30080AFF30080E4
:1020D00000B583B00B4B1B6803F03D030193094B24
:1020E000019A9A60084B1B68002B06D0064B1B68B0
:1020F000054A5268104601999847FEF749FD03B01A
:102100005DF804FB00600240AC0C0120AFF30080DE
:1021100000B583B00C4B1B689B0903F03D03019392
:10212000094B019A92019A60084B9B68002B06D0DC
:10213000064B9B68054AD268104601999847FEF7FE
:1021400027FD03B05DF804FB00600240AC0C0120E9
:1021500000B583B00C4B1B681B0C03F03D030193CF
:10216000094B019A12049A60084B1B69002B06D098
:10217000064B1B69054A5269104601999847FEF7BC
:1021800007FD03B05DF804FB00600240AC0C0120C9
:1021900000B583B00C4B1B689B0D03F03D0301930E
:1021A000094B019A92059A60084B9B69002B06D057
:1021B000064B9B69054AD269104601999847FEF77C
:1021C000E7FC03B05DF804FB00600240AC0C0120AA
:1021D00000B583B00B4B5B6803F03D030193094BE3
:1021E000019ADA60084B1B6A002B06D0064B1B6A6B
:1021F000054A526A104601999847FEF7C9FC03B098
:102200005DF804FB00600240AC0C0120AFF30080DD
:1022100000B583B00C4B5B689B0903F03D03019351
:10222000094B019A9201DA60084B9B6A002B06D099
:10223000064B9B6A054AD26A104601999847FEF7F9
:10224000A7FC03B05DF804FB00600240AC0C012069
:1022500000B583B00C4B5B681B0C03F03D0301938E
:10226000094B019A1204DA60084B1B6B002B06D055
:10227000064B1B6B054A526B104601999847FEF7B7
:1022800087FC03B05DF804FB00600240AC0C012049
:1022900000B583B00C4B5B689B0D03F03D030193CD
:1022A000094B019A9205DA60084B9B6B002B06D014
:1022B000064B9B6B054AD26B104601999847FEF777
:1022C00067FC03B05DF804FB00600240AC0C012029
:1022D00000B583B00B4B1B6803F03D030193094B22
:1022E000019A9A60084B1B6C002B06D0064B1B6CA6
:1022F000054A526C104601999847FEF749FC03B015
:102300005DF804FB00640240AC0C0120AFF30080D8
:1023100000B583B00C4B1B689B0903F03D03019390
:10232000094B019A92019A60084B9B6C002B06D0D6
:10233000064B9B6C054AD26C104601999847FEF7F4
:1023400027FC03B05DF804FB00640240AC0C0120E4
:1023500000B583B00C4B1B681B0C03F03D030193CD
:10236000094B019A12049A60084B1B6D002B06D092
:10237000064B1B6D054A526D104601999847FEF7B2
:1023800007FC03B05DF804FB00640240AC0C0120C4
:1023900000B583B00C4B1B689B0D03F03D0301930C
:1023A000094B019A92059A60084B9B6D002B06D051
:1023B000064B9B6D054AD26D104601999847FEF772
:1023C000E7FB03B05DF804FB00640240AC0C0120A5
:1023D00000B583B00B4B5B6803F03D030193094BE1
:1023E000019ADA60084B1B6E002B06D0064B1B6E61
:1023F000054A526E104601999847FEF7C9FB03B093
:102400005DF804FB00640240AC0C0120AFF30080D7
:1024100000B583B00C4B5B689B0903F03D0301934F
:10242000094B019A9201DA60084B9B6E002B06D093
:10243000064B9B6E054AD26E104601999847FEF7EF
:10244000A7FB03B05DF804FB00640240AC0C012064
:1024500000B583B00C4B5B681B0C03F03D0301938C
:10246000094B019A1204DA60084B1B6F002B06D04F
:10247000064B1B6F054A526F104601999847FEF7AD
:1024800087FB03B05DF804FB00640240AC0C012044
:1024900000B583B00C4B5B689B0D03F03D030193CB
:1024A000094B019A9205DA60084B9B6F002B06D00E
:1024B000064B9B6F054AD26F104601999847FEF76D
:1024C00067FB03B05DF804FB00640240AC0C012024
:1024D00082B0164B00221A600023019311E01449C8
:1024E000019A13465B0013449B000B441B680022B7
:1024F0001A60104B019A002143F83210019B0133FE
:102500000193019B0F2BEADD0B4B4FF0FF329A60DA
:10251000094B4FF0FF32DA60084B4FF0FF329A6000
:10252000064B4FF0FF32DA6002B07047A80C012072
:10253000E0300020AC0C012000600240006402404A
:102540000D4B0D4A126842F480721A600B4B1B6FE0
:1025500003F44073B3F5007F06D0084B4FF480328C
:102560001A67064B00221A67034B034A526822F48B
:1025700000725A60704700BF00700040003802408F
:1025800008B5224B1B69214B4FF0FF321A611F4BDC
:1025900000221A611D4B5B691C4B4FF0FF325A61E0
:1025A0001A4B00225A61194B184A126A62F0805283
:1025B0001A62164B00221A62144B5B6A134B4FF0DF
:1025C000FF325A62114B00225A62114B114A5A6073
:1025D0000F4B00229A600E4B07221A600E4B0E4AD8
:1025E000D26842F08072DA600C4B0C4A126842F0FA
:1025F00001021A60054B054A126C42F080521A64BF
:10260000FFF79EFFFFF764FF08BD00BF00380240E0
:1026100010E000E03F900200F0ED00E0001000E06C
:102620003B4B4FF080521A643A4B4FF440421A60D1
:10263000374B374A126842F001021A6000BF344B30
:102640001B6803F00203002BF9D0314B304A1268AB
:1026500002F0F9021A602E4B00229A6000BF2C4B48
:102660009B6803F00C03002BF9D1294B284A126810
:1026700042F480321A6000BF254B1B6803F400331C
:10268000002BF9D0224B224A526F42F001025A67C6
:1026900000BF1F4B5B6F03F00203002BF9D01C4BF4
:1026A0001D4A5A601A4B1A4A126842F080721A6028
:1026B00000BF184B5B6803F48043002BF9D000BFC8
:1026C000134B1B6803F00073002BF9D0104B134A17
:1026D0009A60134B40F205721A600D4B0C4A9268D7
:1026E00042F002029A6000BF094B9B6803F00C03A2
:1026F000082BF9D1064B064A526C42F480425A64C8
:10270000034B034A526E42F480425A66704700BF40
:102710000038024000700040085440070094083818
:10272000003C0240AFF30080AFF30080AFF30080C5
:1027300000B585B0494B1B680393484B00221A60D3
:10274000039B03F02003002B3BD0454BDB6A1B6847
:102750005B68002B35D0424B1B69002B31D04048C1
:1027600000F0B6F83E4B1B699B68002B0FD03C4B2A
:1027700005221A703A4B1B699B683948012198471A
:10278000374B1B78052B02D1354B02221A70344B84
:1027900000221A61202383F31188314B5B69002BDF
:1027A0000CD02F4B5B6902932D4B00225A61029B88
:1027B0004FF0FF321A620298FEF72AFC002383F3DF
:1027C0001188284B1B680393264B00221A60039B39
:1027D00003F02003002B3BD0234BDB6A1B685B68B4
:1027E000002B35D0204B1B69002B31D01E4800F048
:1027F0006FF81D4B1B699B68002B0FD01A4B0522ED
:102800001A70194B1B699B68174801219847164B92
:102810001B78052B02D1144B02221A70124B002296
:102820001A61202383F311880F4B5B69002B0CD0B6
:102830000D4B5B6901930C4B00225A61019B4FF0D9
:10284000FF321A620198FEF7E3FB002383F311883D
:10285000FEF79EF905B05DF804FB00BF00200140C3
:102860002C0D012000210140600D0120AFF30080FC
:1028700008B50E48FFF76CFA0C4B0D4A9A620B4BE9
:102880000C4ADA62094B0C4A1A630C48FFF760FAEB
:102890000A4B0B4A9A62094B0A4ADA62074B0A4A08
:1028A0001A6312206021FEF7F3F908BD2C0D0120F8
:1028B0000020014070310020162C0200600D012024
:1028C0000021014058310020162C0202AFF3008095
:1028D00082B00190019BDB6A1B68019AD26A126880
:1028E000126822F01F021A6000BF019BDB6A1B689E
:1028F0001B6803F00103002BF7D1019BDB6A5B68C7
:10290000019AD26A127A3D2101FA02F21A60019B01
:102910009B6A00225A60019B9B6A00229A60019B7D
:102920009B6A01229A6002B0704700BFAFF300803B
:1029300082B001900091009B5A68019B5A60009BF5
:102940009A68019B9A60009BDA68019BDA60009BA1
:102950001A69019B5A61009B5A69019B1A62009B8C
:102960009A69019B5A62009B1A68019B1A6002B027
:10297000704700BFAFF30080AFF30080AFF300807B
:1029800000B583B00190244A234B1B6B6FEA53239D
:102990006FEA43231363204A1F4B1B6D6FEA5323D7
:1029A0006FEA43231365019B1C481946FFF7C0FFDC
:1029B000019B1C331A481946FFF7BAFF019B3833B5
:1029C00018481946FFF7B4FF019B543316481946BF
:1029D000FFF7AEFF019B703314481946FFF7A8FFBD
:1029E000019B8C3312481946FFF7A2FF019BA833C5
:1029F00010481946FFF79CFF019BC4330E48194647
:102A0000FFF796FF019BE0330C481946FFF790FF54
:102A100003B05DF804FB00BF003802400000024034
:102A20000004024000080240000C02400010024076
:102A30000014024000180240001C02400020024026
:102A400008B5144B4FF6FF721A801348FFF728FBA6
:102A5000114B124ADA61104B114A1A620E4B114A9D
:102A60005A620D4B104A9A620B4B104ADA621048B8
:102A7000FFF716FB0E4B0F4ADA610D4B0E4A1A6236
:102A80000B4B0E4A5A620A4B0D4A9A62084B0D4A8A
:102A9000DA6208BDF40D0120940D012000300140E0
:102AA0004031002064310020160001064600010676
:102AB000C40D0120003800400431002010310020F6
:102AC0001600010046000100AFF30080AFF3008064
:102AD00000B583B00190019BDB6800221A61019B65
:102AE0001B78042B05D1019B02221A70019800F07B
:102AF000B7F8019B5B685B680198984703B05DF885
:102B000004FB00BFAFF30080AFF30080AFF30080A1
:102B100008B50348FFF7DCFFFEF73AF808BD00BF31
:102B2000F80D0120AFF30080AFF30080AFF3008019
:102B300008B50348FFF7CCFFFEF72AF808BD00BF31
:102B4000080E0120AFF30080AFF30080AFF30080E8
:102B500008B5064B064ADA600448FFF721F9054B31
:102B6000054ADA600348FFF71BF908BDF80D01209C
:102B7000000C0040080E012000400140AFF300802F
:102B800000B585B00190019B1B78012B33D1019AD0
:102B90002C4B9A4215D12C4B2B4A126C42F0080256
:102BA0001A64294B284A126A42F008021A62264B1C
:102BB00000221A6232207021FEF76AF8019B234A34
:102BC0009A60019A224B9A4215D11F4B1E4A526CB1
:102BD00042F480325A641C4B1B4A526A42F48032DF
:102BE0005A62194B00225A6218207021FEF750F8E1
:102BF000019B184A9A60019B9A68019B5B681B685D
:102C0000B2FBF3F39BB2013BADF80E30019BDB68E6
:102C100000221A60019BDB6808225A60019BDB6876
:102C2000BDF80E209A62019BDB68019A5268926897
:102C3000D2B2DA60019BDB6800221A6105B05DF850
:102C400004FB00BFF80D01200038024000BD010563
:102C5000080E0120007A030AAFF30080AFF3008072
:102C600082B00190019BDB6800221A60019BDB6847
:102C700000221A61019BDB68019AD268D26822F0B7
:102C8000FF02DA6002B07047AFF30080AFF300805C
:102C900082B001900091019BDB68009A013ADA62F0
:102CA000019BDB6801225A61019BDB6800221A61EB
:102CB000019BDB680D221A6000BF019BDB681B696A
:102CC00003F00103002BF8D002B07047AFF300808F
:102CD00000B585B00190019B1B691B69ADF80E30F2
:102CE000019B1B69DB689AB2BDF80E3013409BB2A2
:102CF000DBB2ADF80E30019B1B69BDF80E20D2434C
:102D00001A61BDF80E3003F00203002B04D0019BC2
:102D10005B681B6901989847BDF80E3003F0040307
:102D2000002B04D0019B5B689B6901989847BDF814
:102D30000E3003F00803002B04D0019B5B681B6A74
:102D400001989847BDF80E3003F01003002B04D013
:102D5000019B5B689B6A01989847BDF80E3003F0B1
:102D60000103002B04D0019B5B689B680198984786
:102D700005B05DF804FB00BFAFF30080AFF3008047
:102D800008B50348FFF7A4FFFDF702FF08BD00BF29
:102D9000180E0120AFF30080AFF30080AFF3008086
:102DA00008B50348FFF794FFFDF7F2FE08BD00BF2A
:102DB0002C0E0120AFF30080AFF30080AFF3008052
:102DC00008B50348FFF784FFFDF7E2FE08BD00BF2A
:102DD000400E0120AFF30080AFF30080AFF300801E
:102DE00008B50A48FFF734F8084B4FF080421A61E3
:102DF0000748FFF72DF8064B064A1A610648FFF709
:102E000027F8054B054A1A6108BD00BF180E0120BE
:102E10002C0E012000040040400E0120000800405C
:102E200000B585B001900B46ADF802300023039346
:102E3000BDF8023003F00803002B03D0039B43F0DE
:102E400080030393BDF8023003F00103002B03D08D
:102E5000039B43F020030393BDF8023003F0020309
:102E6000002B03D0039B43F040030393BDF80230D3
:102E700003F00403002B03D0039B43F480730393FC
:102E8000019B043318460399FEF712FC05B05DF868
:102E900004FB00BFAFF30080AFF30080AFF300800E
:102EA00000B587B00190019B5B6F0493049B9B89E5
:102EB000ADF80E30049B1B88ADF81630BDF8163007
:102EC00003F48073002B10D0202383F31188019B1F
:102ED000043318464FF40071FEF7EAFB002383F336
:102EE0001188049B4FF6FF621A80202383F3118818
:102EF00017E0BDF8163003F00F03002B05D0BDF826
:102F0000163001981946FFF78BFF049B9B889BB2F4
:102F1000DBB201981946FFF793F8049B1B88ADF8C4
:102F20001630BDF8163003F02003002BE1D100234A
:102F300083F31188BDF80E3003F08003002B2AD0F4
:102F4000BDF8163003F08003002B24D0202383F338
:102F50001188019B30331846FEF7CAFD0290029B90
:102F6000002B11DA019B043318460821FEF7A0FB61
:102F7000BDF80E3023F0C0039BB243F040039BB278
:102F80009AB2049B9A8103E0029B9AB2049B9A80B6
:102F9000002383F31188BDF8163003F04003002BA3
:102FA00016D0202383F31188019B04331846102187
:102FB000FEF77EFB002383F31188BDF80E3023F06B
:102FC000C0039AB2049B9A81049B4FF6BF721A8089
:102FD00007B05DF804FB00BFAFF30080AFF30080E3
:102FE00082B00190044B044A928992B242F080026E
:102FF00092B29A8102B0704700440040AFF3008063
:1030000008B50348FFF74CFFFDF7C2FD08BD00BF40
:10301000540E0120AFF30080AFF30080AFF30080C7
:1030200008B504480021044AFEF7DAFF014B034AC1
:103030005A6708BD540E0120E12F002000440040D3
:1030400008B5FFF7EDFA08BDAFF30080AFF30080DD
:10305000704700BFAFF30080AFF30080AFF3008094
:103060006B000000000000000000000000000000F5
:1030700069646C65000000000000000000000000B2
:1030800040420F00000000000000000000000000AF
:1030900040420F000000000000000000000000009F
:1030A0006D61696E00168211040444080C10141836
:1030B000001C1D1E1F00000000000000000000009A
:1030C000711E0020A11E0020D11E0020011F002023
:1030D000211F0020511F0020711F0020A11F002070
:1030E000106002400860024000000B0028600240AF
:1030F0000860024006010C00406002400860024087
:1031000010020D00586002400860024016030E00D5
:10311000706002400C60024000040F0088600240B2
:103120000C60024006051000A06002400C600240E6
:1031300010061100B86002400C60024016072F0014
:10314000106402400864024000083800286402400D
:1031500008640240060939004064024008640240E5
:10316000100A3A005864024008640240160B3B0003
:10317000706402400C640240000C3C008864024011
:103180000C640240060D4400A06402400C6402403E
:10319000100E4500B86402400C640240160F460051
:1031A00000AAA02A00000000FFABFFFF540001406E
:1031B000FFFF00000000565500AA0A00802008000A
:1031C00040020000FFFFFFFF15455155FFFF0000C3
:1031D0000000000440000000018020020000000008
:1031E000FFFFFFFF54154554FFFF00000000006083
:1031F000000606000001005500000000FFFFFFFF71
:1032000055505500FF0F00000000000000000000B6
:103210004000000000000000FFFFFFFF0000000072
:10322000FFFF0000000000000000000000000000A0
:1032300000000000FFFFFFFF00000000FFFF000094
:10324000000000000000000000000000000000007E
:10325000FFFFFFFF00000000FFFF00000000000074
:10326000000000000000000000000000FFFFFFFF62
:1032700000000000FFFF0000000000000000000050
:103280000000000000000000FFFFFFFF0000000042
:0C329000FFFF0000000000000000000034
:0432A000C809012038
:04000005200009E1ED
:00000001FF
